:020000041000EA
:10000000002008205D0100101301001015010010F0
:100010001101001011010010110100101101001058
:10002000110100101101001011010010695400109D
:100030001101001011010010E9530010455100108A
:100040001D0100101D0100101D0100101D010010F8
:100050001D0100101D0100101D0100101D010010E8
:100060001D0100101D0100101D0100101D010010D8
:100070001D0100101D0100101D0100101D010010C8
:100080001D0100101D0100101D0100101D010010B8
:100090001D0100101D0100101D0100101D010010A8
:1000A0001D0100101D0100101D0100101D01001098
:1000B0001D0100101D0100101D0100101D01001088
:1000C0001D0100101D0100101D0100101D01001078
:1000D0001D0100101D0100101D0100101D01001068
:1000E0001D0100101D0100101D0100101D01001058
:1000F0001D0100101D0100101D0100101D01001048
:100100001D0100101D0100101D0100101D01001037
:1001100000BE00BE00BE00BE00BE00BEEFF3058004
:10012000103800BEF2EB887190690010B4690010BD
:10013000A801001090A31AE7D3DEFFFF42012110AF
:10014000FF0100006C7B0000793512AB4FF000001E
:100150002049086006C881F3088810474FF05040D6
:10016000006810B14FF00000F2E70FA40ECC002998
:1001700002D000F015F8F9E71749184A002000E00E
:1001800001C19142FCD1002080F30A8814498847BC
:10019000144988471449884700BEFDE701C901C2D8
:1001A0009A42FBD3704700BFB469001010010020D1
:1001B00000140020A47C001000000820000008208B
:1001C000A47C00100010082000100820000000008F
:1001D0007047000008ED00E00014002058230020C4
:1001E00049160010C902001041160010F8B500BFF2
:1001F000064B0749C91A891048BF0131491003D07D
:10020000044B0BB101481847704700BF0014002091
:10021000001400200000000008B5054B1BB1054983
:100220000548AFF30080BDE80840FFF7E1BF00BF1D
:1002300000000000882100209C65001008B51620F1
:1002400000F076F816234FF0010242EC44304FF0F4
:10025000000242EC4030BDE80840002004F0D6B86F
:1002600016264FF0010508B5084C094801F028FB97
:1002700045EC4060206804F0D5F9002004F024F932
:100280004FF47A7004F048FBEFE700BF701D0020C8
:100290009C65001016264FF0000508B5084C09486B
:1002A00001F00EFB45EC4060206804F0BBF9002033
:1002B00004F00AF940F2DC5004F02EFBEFE700BF37
:1002C000741D0020B86500100024022500B583B01D
:1002D00001F0B2FACDE9005401250D4E80222346EB
:1002E0000C490D4804F010F8CDE900560B4E802261
:1002F00023460B490B4804F007F8802223460A499D
:10030000CDE90056094803F0FFFF04F0DDF9FEE7F0
:10031000741D0020D46500103D020010701D0020E7
:10032000DC65001061020010E46500109502001009
:1003300030B44FF0000343EC440043EC400005258B
:100340004FF480740B4BC20053F8201003EB800075
:1003500081F0400102F1804303F5203301F0C00237
:1003600000F5805100F540500A605D60046030BCCB
:10037000704700BF048003400FB400B583B0049CF5
:10038000074801F09DFA3CB105A92046019101F012
:1003900027F9044801F094FA012001F039F900BF6F
:1003A000EC650010FC65001070B58646EFF3108513
:1003B00072B6124CD4E8CF6F0120002EFAD1C4E8F7
:1003C000460F002EF6D1BFF35F8F4FF0010CC80827
:1003D00001F007030CFA03F31EF800C01CEA030641
:1003E00008D14CEA030C0EF800C0C4E88F6F85F307
:1003F000108870BD1046FFF7BFFF00BFF718002040
:10040000F8B5EFF3108772B61C4ED6E8CF5F012423
:10041000002DFAD1C6E8454F002DF6D1BFF35F8F0E
:100420009A421BD8012502E00132934222D3D4081C
:1004300010F804E002F0070C05FA0CFC1EEA0C0FA1
:10044000F2D14EEA0C0E00F804E010460023C6E894
:100450008F3F87F31088984207DBF8BD0023C6E87A
:100460008F3F87F310884FF0FF300029F5D00698B2
:10047000FFF782FF4FF0FF30E8E700BFF7180020DA
:10048000044A1078431CDBB2182B28BF10231370CA
:10049000704700BF000E002010B5054C82B0014629
:1004A0001F23182200940348FFF7AAFF02B010BDD3
:1004B00000660010081D00204FF0E022936843F012
:1004C00000539360704700BF0021044B03F12002EA
:1004D000C3E88F1F01339342FAD17047EC18002014
:1004E0004FF0E0234FF08032C3F80024C3F8042417
:1004F000C3F80824C3F80C24C3F81024C3F8142448
:10050000C3F81824C3F81C24C3F82024C3F82424F7
:10051000C3F82824C3F82C24C3F83024704700BF44
:10052000012300F01F029340400941B1800000F117
:10053000604000F56140C0F8803103607047024AB6
:10054000203042F82030704700E100E00123064AE5
:10055000410952F8212000F01F0003FA00F010407A
:10056000003818BF0120704700E100E00122430974
:10057000034900F01F008240403341F823207047B8
:1005800000E100E0054A10309268054B52F8200067
:10059000C01A2F288CBF00200120704700ED00E01A
:1005A000040E0020F8B50D46EFF3108772B6124E18
:1005B000D6E8CF2F0123002AFAD1C6E8423F002A0D
:1005C000F6D1BFF35F8F0D4B00F110049B680C4A0E
:1005D00053F82430934203D0994201D000F0F8FE42
:1005E000064B9B6843F82450BFF35F8F0023C6E897
:1005F0008F3F87F31088F8BDF518002000ED00E06C
:100600001D0100102DE9F04F81468B46164683B040
:10061000EFF3108372B6DFF8D0A10093DAE8CF1FB2
:1006200001230029FAD1CAE8413F0029F6D1BFF3DE
:100630005F8F664B93F90040002CC0F2A080644DA0
:1006400004EB440705EB870898F8061009F1100938
:100650001970604BBF009B6853F829006300411B71
:100660002F292FD95C49884240F0A4801C445B4B61
:1006700002372F44043BDB1BC3F34A036FEAC34337
:100680004FF421416FEAD34325F8241005EB84048D
:1006900063804BF60153A380FF2348F00100E6710D
:1006A000C4F808B0A3714B4B9B6843F82900BFF313
:1006B0005F8F0023CAE88F3F009B83F3108803B04D
:1006C000BDE8F08F20F0010E9EF80710B1422ED841
:1006D0004FF42143EB53414BB91C2944043B0437ED
:1006E0005B1A2F44AEF10401C91BC1F34A043C4913
:1006F000C3F34A030B432143A8F804103949A8F86F
:1007000002304AF6AA2073465B1B5B415843000D3A
:1007100088F8076088F80600C8F808B048F00100BB
:10072000CEF80010BFE7D179B1422ED996469EF996
:1007300006C00CEB4C02BCF1000F05EB8202F2DAB2
:100740004BF601510EF10402A8F10407BF1AC7F3DA
:100750004A076FEAC7476FEAD7478EF8064003EBB0
:100760000408204C05EB8803AEF8047045F82840D7
:10077000998083F806C0DE71C3F808B093E700F0F3
:1007800027FE124B93F9004059E7724632F8041FD6
:10079000490514D44915023102EB410101916FF072
:1007A0000701C91B019F491B3944C1F34A0141F4A8
:1007B0006041C9E7019300F00BFE019B56E701F58C
:1007C000FF1101F5FF511F31E4E700BF5323002063
:1007D000040E002000ED00E01D010010340E00208A
:1007E00000E0FFFF01488047F5180020F0B5EFF367
:1007F0000585EDB2EFF3108C72B62649D1E8CF2F04
:100800000123002AFAD1C1E8423F002AF6D1BFF302
:100810005F8F214E40F0010EB4684AF6AA2354F8C7
:1008200025701E4A0446A41A644163431B0D774594
:100830005BB21BD092F906409C421CD092F9124048
:100840009C4223D092F91E409C4221D092F92A402A
:100850009C4208BF03240FD0114A0024157813705E
:100860008571C1E88F4F8CF31088F0BDB2680D4CD4
:1008700042F82540F0E7002404EB440402EB840234
:10088000FF2494714BF601549480E5E70124F3E7CB
:100890000224F1E7F518002000ED00E0040E00202E
:1008A000532300201D01001010B5074C82B00146F3
:1008B0000523002200940548FFF7A2FD0028A8BFE9
:1008C000C0F1330002B010BD1C6600105723002099
:1008D000014B0B4403607047EC18002070B5104CBE
:1008E000104DAC420ED2FF26236863B1FFF7C8FD5E
:1008F00001462046FFF7ECFFA680BFF35F8F083468
:10090000AC42F1D370BDFFF7BBFD01462046FFF7B7
:10091000DFFF2671BFF35F8F0834AC42E4D370BDB4
:10092000F81300200014002010B50446FFF7A8FDBE
:1009300001462046FFF7CCFFFF232371BFF35F8FF3
:1009400010BD00BF10B504460120FFF7A5FD034B05
:1009500003442360BFF35F8F10BD00BFEC1800207D
:10096000024B0B440360BFF35F8F7047EC1800200D
:100970000D4B1A68EFF3108172B6D2E8CFCF012089
:10098000BCF1000FF9D1C2E84C0FBCF1000FF4D15B
:10099000BFF35F8F00221B68C3E88F2F81F310889D
:1009A00040BF0020002170476022002000000000AE
:1009B0002DE9F04F2DED028B85B0EFF30583DBB20F
:1009C000103B9A0818BF01224FF0010103F0030BFE
:1009D00018BFAF4DAF4B08BFAF4D0BEB820253F8C2
:1009E000226001FA0BF205F541539FEDA78B0192AE
:1009F0005A602FE0B3881C0440F19380B379002B38
:100A000040F0DD80B6F90820002AC0F21E8173692B
:100A100002EB420203EBC203D3E90247B7F1FF3F07
:100A200008BFB4F1FF3F0ED005EB8B01AB6A0A693A
:100A3000D21AE31A934205D301232A6A03FA0BF36D
:100A4000134200D10C61284600F03EFBA042B941A0
:100A5000C0F2FB80B6F90830019A002B0093EA63DC
:100A6000C8DBD6F8148003EB4309284608EBC90716
:100A7000D7E9024A00F028FBA04271EB0A01B9DB7A
:100A8000BAF1000FC0F2C380D7E90431834A934220
:100A900000F0ED807A88B6F9080092B242EA004090
:100AA000984702460B4652EA030100F0B080002B43
:100AB00080F2D180B4EB020E6AEB030A38F93930C8
:100AC000C7E902EA002B95DB716903EB430201EBF6
:100AD000C202D2E90270BE457AEB000C4FEA430233
:100AE00088DBB4462CF8083F06E003EB430001EB3B
:100AF000C0005A00D0E90270BE451A447AEB0000EB
:100B000001EBC20404DB31F93230A446002BECDAED
:100B100028F83930009BACF80030B3881C043FF54E
:100B20006DAF3369EFF3108272B6D3E8CF0F0121B6
:100B30000028FAD1C3E8401F0028F6D1BFF35F8F29
:100B40004FF6FF74B0880023316900B2B480C1E869
:100B50008F3F82F310889842FFF650AF0746A946B0
:100B6000746906F1080807EB470E04EBCE03D3E9DE
:100B70000250B6F90830C446002B13DBB24600978A
:100B800004E034F936309446002B09DB03EB4306CE
:100B900004EBC602D2E90271BD4270EB0101F0DA4A
:100BA0005646009FACF8007034F93E7024F83E3091
:100BB000002FD8DAB3794D46002B3FF423AF002342
:100BC000B371B6F9083006F10808581C3DD01A4632
:100BD000776903E08046591C3FF416AF03EB4301ED
:100BE00007EBC100B0F802C01C461CF4004F9E4643
:100BF00037F93130EED0944280ED028B05D0A8F861
:100C00000030328927F8312034817246E3E738F822
:100C1000393033813369EFF3108272B6D3E8CF0FE6
:100C200001210028FAD1C3E8401F0028F6D1BFF304
:100C30005F8F7388316928F83930009B73800023F7
:100C4000C1E88F3F82F31088D4E640BF05B0BDEC09
:100C5000028BBDE8F08F2846CDE9022300F034FA7C
:100C6000029A039B10EB020E43EB010A26E70846AB
:100C70000B69029198470028C9D00299D1E9002355
:100C800011E700BFAFF30080FFFFFFFFFFFFFFFF93
:100C900000800B40A821002000000B40B10900108B
:100CA0002DE9F84F364C25692DB1BDE8F84F0A21E2
:100CB0003448FFF70DBEDFF8E4800321404600F022
:100CC000F1F90326C4F80C80FFF7DAFB4FF0504C23
:100CD0002D4B267003442361DCF800300F21637034
:100CE000636961801D834FF00405A3F878504FF0CD
:100CF0000505A3F890504FF00605A3F8A8504FF053
:100D000007050E214FF6FF7208274FF00A0EA3F8D1
:100D1000C0504FF001094FF00C0C4FF0020B4FF098
:100D2000090A0D204FF00B05A3F868111749A2809E
:100D3000A3F808E1A160A3F848B0A3F8F0A0A3F8D5
:100D40002051A3F838C1A3F85001A3F83090A3F8BC
:100D50006060A3F8D8701A800D4B3046C8F8207038
:100D60000C49DC60FFF71EFC49463046FFF7D8FB14
:100D7000094B0A211F640348BDE8F84FFFF7A8BDDF
:100D80004C0E002060220020EC180020FFFF100015
:100D9000A8210020B109001000200B4000000B40EA
:100DA000004870474C0E0020F8B59DF820500446CE
:100DB00017461E4635B900F08FF9874266EB0101F0
:100DC00000295CDB2169EFF3108372B6D1E8CF0F05
:100DD00001220028FAD1C1E8402F0028F6D1BFF344
:100DE0005F8FB4F90220656902EB4201002A4FEAE5
:100DF000C10C206905EBC10139DB35F80CE0A4F822
:100E000002E04FF0000EC0E88FEF83F310884888AF
:100E1000069B0130C0F30E00012838BF01200B6192
:100E2000079B48804B61C1E9027640EA0240236992
:100E3000EFF3108172B6D3E8CF7F0126002FFAD1ED
:100E4000C3E8476F002FF6D1BFF35F8FA38825F863
:100E50000C30A2802369C3E88FEF81F31088012250
:100E6000E368217803F501538A405A60F8BD0022F7
:100E7000C0E88F2F83F310884FF0FF30F8BD28466D
:100E8000F8BD00BF0146F0B50069EFF3108772B6F8
:100E9000D0E8CF5F0124002DFAD1C0E8454F002DE6
:100EA000F6D1BFF35F8FB1F902E04C690EEB4E0C47
:100EB000BEF1000F4FEACC05086904EBCC0C3CDB1B
:100EC000665B4E800026C0E88F6F87F31088BCF801
:100ED0000200CCE902230130C0F30E00012838BF24
:100EE0000120059BACF80200CCF81030069B40EACC
:100EF0000E40CCF814300B69EFF3108272B6D3E8D1
:100F0000CFCF0127BCF1000FF9D1C3E84C7FBCF172
:100F1000000FF4D1BFF35F8F8B886353A1F804E017
:100F20000B69C3E88F6F82F310880122CB680978C0
:100F300003F501538A405A60F0BD0023C0E88F3F9B
:100F400087F310884FF0FF30F0BD00BF03464089A3
:100F5000B0EB214F37DD58690A1402EB420210B59D
:100F600000EBC2001C69EFF3108C72B6D4E8CFEF2F
:100F70000122BEF1000FF9D1C4E84E2FBEF1000FDF
:100F8000F4D1BFF35F8F428889B292B28A4207D010
:100F900000221B69C3E88F2F8CF31088002010BD3E
:100FA00042F4004242800121002218699971C0E890
:100FB0008F2F8CF310881C78DA68084602F50153ED
:100FC000A140596010BD0020704700BF40787047B5
:100FD0002DE9F04306460D4683B0EFF30584E4B2F5
:100FE0003CB12D4B5A6AAA421CD2002003B0BDE886
:100FF000F0832A4FD7F80C9097F80080484600F00D
:1010000063F808F1040859F828301B1A301A65EB08
:101010000101984271F1000110DB20BF1E4B5A6A9A
:10102000AA42E2D314BF012400249B6AB34234BF16
:10103000204644F0010003B0BDE8F08300F04CF816
:10104000864265EB0101002914DB154B3846CDE9DA
:10105000003432462B46FFF715FF011E0ADD0E4B0A
:101060005A6AAA4216D39B6AB34211D30B48FFF7C0
:101070006DFFB6E7084B5C6AAC42B6D3641B18BF81
:1010800001249B6AB34234BF204644F00100ADE71F
:10109000AA42EBD120BFE9E700000B404C0E002034
:1010A0007109001010B4054B054C064AA04214BF4C
:1010B0001846581C5DF8044BFFF776B90C1D00204C
:1010C00000800B40386600100346416A0A46986A61
:1010D000596A8A42FAD17047034B596A0A46986A9C
:1010E000596A9142FAD1704700000B4000EB400C66
:1010F0004FEA8C0C0CF1804C0CF5803CF0B5164698
:10110000DCF80420051FB2F5803F38BF4FF4803271
:10111000EDB238BFCCF80420012D2AD94FF4006776
:10112000254C0CF54052176054F82020B2B9DCF879
:101130000020012D82EA461202F0E0020CF58056F2
:1011400032602AD94FF4006144F820304FF48033E4
:101150000CF500521160CCF80430F0BD6769B7FBA4
:10116000F2FE0EF1010E0EEB4E0EBEF1030EFCD29E
:10117000DDE70129D2D103240CF540521460DCF8DC
:101180000820D207FBD5DCF800200B4C82EA46127F
:1011900002F0E0020CF5805632600122DCF80050CB
:1011A0004D4005F00305356002FA01F1DCF8082036
:1011B0000A42FBD0C6E700BF101D0020014B53F8C8
:1011C00020007047101D002070B4039D04682D039B
:1011D00045EA03451B4B002CB3FBF1F3B2FBF3F6DE
:1011E0001FDB194A194B904214BF4FF480424FF451
:1011F0000042174C1A6003F580531A60A36832EA64
:101200000303FBD1212200F54053043301608660C3
:101210001A600268002AFCDA0822C5601A6070BCF5
:101220007047036803F03F038B42DAD18368C3F34E
:101230000B03B342D5D1C36803F4EE23AB42D0D144
:10124000EDE700BF001BB700008005400020024012
:101250000000024030B44FF080441C4B1C60E0B1F1
:101260001B4CA3F54053DC611A4C40F00100444094
:101270001C62596298624FF080454FF0E061134B59
:101280001548164C1D60846019604AB930BC4FF097
:101290000042A3F580531A607047114BD861EAE70A
:1012A0004FF47A7303FB02F2B2F1807F2ABF6FF032
:1012B0007F4313461A464FF080410A4C084823608A
:1012C000094B426030BC1960704700BF00B00D4050
:1012D000D3C007B02D3FF84F00A00140F3FFFF013E
:1012E00000800D408021002000A00D40012300EB74
:1012F0004000800000F1804000F5841041600360F0
:10130000704700BF002370B5DB8A04460D460022FB
:1013100042E800F2520254BF1021042144F252204C
:10132000984786462B462246F446BDE870400A217F
:101330004FF48170604700BF0023DB8A002242E83F
:1013400000F2520201D4102118470421184700BFAF
:1013500008B503460846191E02DB1AB140F03000FA
:10136000FFF7D0FF40F02000FAE700BF034AD2F8B1
:101370002838002BFBD0BFF35F8F704700000E4072
:101380000021044B044ABFF35F8F43F8041B9342D0
:10139000F9D170470C080E402C080E4010B44FF4E1
:1013A0008D704FF42A64064A064B07491460D060DA
:1013B00019605368002BFCDA5DF8044B704700BFDE
:1013C0000080044000A0044000B0FA00704700BF55
:1013D00008B50148FEF7D0FF5C66001038B5054C33
:1013E000054DAC4204D254F8043B9847AC42FAD3C2
:1013F00038BD00BF506500109065001010B407485C
:10140000074C084B084A094904601A608B6832EAA5
:101410000303FBD15DF8044B704700BF002002407E
:101420007F3BEFEF00300240F6FFF3030000024085
:10143000044BDB6CB3F5004F03D14FF48022024B19
:10144000DA64704700001150002011504FF0E02284
:10145000044BD2F8881D0B43C2F8883D10EE3004CF
:10146000704700BF030330006FF06041044B054A32
:1014700019609368DB4333F06043FAD1704700BFD3
:10148000003002400000024010B545F25320FFF743
:1014900053FFBDE8104003460420184710B545F23D
:1014A0005320FFF749FFBDE81040034601201847CD
:1014B000FFF70AB810B5054B054C4FF48872184673
:1014C000A16804F029FEA06010BD00BF000000204C
:1014D00000ED00E0002370B52B4C82B0C4F88430DE
:1014E000FFF75CFF0122294BDA63636C012BFCD10F
:1014F0000321264A244B11639C6B012CFCD102264C
:10150000052521460523224A22480096FFF75CFE66
:1015100021462B46204A21480095FFF755FE002220
:10152000042031461E4BFFF7E1FD214628460022EC
:101530001C4BFFF7DBFD0022082011461A4BFFF77A
:10154000D5FD002209201146174BFFF7CFFD0022E1
:1015500006201146134BFFF7C9FD0022114B07204F
:101560001146FFF7C3FD0420FFF728FE00240F4BB0
:10157000A3FB0035AD0CE0B229460134FFF7B6FEFF
:10158000062CF8D102B070BD0000014000300140CF
:10159000002F685900000540008C864700800540F8
:1015A000001BB70080D1F008006CDC0283DE1B4317
:1015B00010B5044604F060FA28B10346034A2344F8
:1015C000934200D810BD0248FEF7D6FE0000082066
:1015D0006866001004F058BA00B9704700F02EB9E0
:1015E00010B5094B84B01C684CB1034600914FF014
:1015F000FF3203A90548A047012004B010BD00F048
:101600005FF9204604B010BD7C210020D9150010E0
:1016100000BEFDE7074A0346106838B10649034497
:101620008B428CBF4FF0FF30136070470349084670
:101630001160F3E7781D00200000082058230020E7
:1016400008B5FFF7E5FF00BF38B5064C064DFFF7BC
:10165000C5FEAC4204D254F8043B9847AC42FAD3DE
:1016600038BD00BF906500109C65001003680846F7
:10167000114618472DE9F0411546427D0746884638
:10168000002A46D0002D1DDD0B780A2B23D0012D1A
:101690004FF0000C18D04646012416F8012F2146C1
:1016A0000A2A04F1010422D0A542F6D165450BDCDB
:1016B00008EB050313F8013CA3F10D03B3FA83F320
:1016C0005B093B75BDE8F0813B68A5EB0C0108EBBD
:1016D0000C009847ECE7037D002BD8D1036802216A
:1016E0000F489847012DE3D04FF0010CD3E716F8CF
:1016F000013C0D2BD8D08C4508EB0C00A1EB0C0164
:1017000001DA3B689847022105483B689847A446A0
:10171000CAE7294640463B68BDE8F041184700BF8C
:10172000C86700102DE9F04782B00D4691461C466F
:101730000646FFF7D1FC4FF0FF3C6FF000472E4A02
:10174000821841F10003944577EB03013CBF6246E8
:101750003B462A4804F0ECFE6B1C804640D00CB39C
:10176000274F284B1C68B4B1B9F1000F1CD1DFF82A
:101770009C9001E0246974B12368002BFAD0D9F859
:1017800000300BB19C42F5D120462A463146B8477D
:101790002469002CF0D1B8F1000F26D1284602B000
:1017A000BDE8F087184FDCE74FF00A0ADFF85C90DD
:1017B00002E02469002CEED02368002BF9D0D9F880
:1017C00000300BB1A342F4D12A4631462046B84737
:1017D000012220460DF107018DF807A0B847E8E780
:1017E000304604F00FFD0546B9E7044804F094FEC6
:1017F000284602B0BDE8F08740420F00F8130020F1
:1018000075160010601D00206D1600106C1D002064
:10181000084A136823B90AE003F110021B6933B1C7
:101820008342F9D129B9186910601961704701B173
:1018300010607047601D002000F06EBAF0B583B0F4
:1018400006468DF80700FFF747FC4FF0FF356FF0B5
:101850000044174A821841F10003954274EB0301DA
:101860003CBF23462A46134804F062FE124B07464B
:101870001C689CB1114D01E024697CB12368002BE8
:10188000FAD02B680BB19C42F6D1204601220DF113
:101890000701FFF7EFFE2469002CEFD117B930469E
:1018A00003B0F0BD034804F037FE304603B0F0BD8E
:1018B00040420F00F8130020601D00206C1D002026
:1018C00038B5044604F09EFC012305461A4620461E
:1018D0002946FFF727FF084B1C682CB163682BB122
:1018E00098472469002CF9D1284638BD2469002C7A
:1018F000F4D1284638BD00BF601D0020704700BFEE
:101900000022014B1A707047542300204B79FF2BA3
:101910000BD1887948B9CB79012B07D1082A05D991
:10192000034B8A7809201A7070470020704700BF67
:101930005423002001207047012901D00120704765
:1019400008B5104B91881B78994201D0002008BD42
:101950005378012B08D0022BF8D1002164220846CD
:10196000FFF778FC012008BD5188CB0548BF480A25
:10197000C1F3402258BF4FF0FF3001F07F01FFF765
:10198000E7FC00BF54230020004870479468001013
:10199000012907D15378012B02D19388072B03D05B
:1019A00000207047012070471146A623014A01F02C
:1019B00039BA00BFEC6700100346012201481A70D3
:1019C000704700BFCC67001008B50B68B3F5966F81
:1019D00000D008BD00224FF0FF301146FFF7B8FCE1
:1019E000024A034B10601960704700BF001D0020C1
:1019F000041D0020184B70B51A68002A28D0EFF398
:101A0000108172B6D2E8CF4F0120002CFAD1C2E883
:101A1000440F002CF6D1BFF35F8F00220F4C1868E3
:101A200059602270C0E88F2F81F3108800240025B0
:101A30000B4E3078FEF78AFD20B9002400252046A1
:101A4000294670BD3078FEF791FD2046294670BDCD
:101A50004FF47A740025EBE7A021002056230020E4
:101A600055230020014B1878FEF780BD5523002038
:101A700038B5044600200D4601F004FBA8B3002051
:101A800001F016FB88B3FFF727FB4FF0FF3E6FF026
:101A9000004C174A821841F1000396457CEB030184
:101AA0003CBF72466346134804F042FDE8B1002093
:101AB00001F0E8FA58B900214FF0FF3000F00AFDBC
:101AC0006FF002040B4804F027FD204638BD0020CB
:101AD00001F0EEFA0028EED021462A46002001F05F
:101AE000F1FA04460028EDD1EAE76FF00204ECE7D2
:101AF00040420F006422002008B5FFF7EDFA4FF0D6
:101B0000FF3E6FF0004C0F4A821841F100039645EA
:101B10007CEB03013CBF724663460B4804F008FDB2
:101B200070B14FF0FF30002100F0D4FC002001F034
:101B300011FB0028F5D1BDE80840034804F0ECBCD7
:101B400008BD00BF40420F00642200202DE9F84389
:101B500080460F46FFF7C0FA4FF0FF356FF00044A4
:101B6000334A821841F10003954274EB03013CBFF4
:101B70002A4623462F4804F0DBFC08B9BDE8F88369
:101B8000002001F07FFA002847D0002F40DD00251B
:101B9000DFF8A890284E13E02246002001F020FB39
:101BA000002104464FF0FF3000F094FC002001F0CB
:101BB000D1FAFFF791FAC9E900012544AF4227DDC8
:101BC000002001F02DFB7C1B8442A8BF044608EBDB
:101BD0000501002CE0D121464FF0FF3000F07AFCE7
:101BE000204601F0B7FA204601F04CFA80B12046B9
:101BF00001F016FB0028E1D1FFF76EFAD9F80030AA
:101C0000D9F804209B1942F1000283428A41D5D2BF
:101C10000848BDE8F84304F07FBC00200021074BD2
:101C2000C3E90001BDE8F843024804F075BC00BFF9
:101C300040420F006422002020A1070080150020F0
:101C400030B5002185B02E4804F07EFCF0B92D4B54
:101C50001A68CAB1EFF3108172B6D2E8CF5F0124DF
:101C6000002DFAD1C2E8454F002DF6D1BFF35F8FAA
:101C7000254C1D6822785960D3B201222270C5E834
:101C80008F0F81F31088CBB105B030BD00214FF02C
:101C9000FF3000F01FFC002001F00AFA044618484B
:101CA00004F03AFC002CEFD0184B1B68002BEBD053
:101CB000174A106805B0BDE830401847FFF770F8C4
:101CC0000446FFF709FA4FF0FF3C6FF0004510F5AE
:101CD0007A7241F10003944575EB030138BF2B463E
:101CE0004FF000014FF0010520460A4C38BF624614
:101CF000CDE901150094FFF757F805B030BD00BFDE
:101D000064220020A021002056230020001D002076
:101D1000041D0020F51900104FF0504330B585B078
:101D20001C68FFF73DF8FFF751F9A04202D00020F0
:101D300005B030BD00212A4B08461B7801F038FD64
:101D400028480368002B47D00120FEF7ADFD03466D
:101D5000254C2649C0B22370FEF724FC20780121CF
:101D6000FEF7DEFB0E20FEF70DFC40BB204B0125ED
:101D7000C3E90000FFF714F80446FFF7ADF94FF090
:101D8000FF3E6FF0004C10F57A7241F1000396456A
:101D90007CEB03014FF000012046164C3CBF72461D
:101DA0006346CDE901150094FEF7FEFF0028BEDB77
:101DB00001211148FFF72CFD012005B030BD0120A5
:101DC000FEF76AFB01460A48FEF7CAFD00220E2014
:101DD0000A49FEF717FCEBE7FEF7A6FDB4E700BFE4
:101DE000B06900106422002055230020411C00101F
:101DF000A0210020F5190010640E0020651A0010C3
:101E0000004870473069001000487047DC680010D7
:101E100038B5184B04461A780AB344B940F209425F
:101E20004FF44173144D6A8013482B8038BD052C44
:101E30001DD8124B104D53F82410284600230139A9
:101E400003E0132B20F8022F0ED011F8012F0133DD
:101E5000DBB2002AF5D15B0043F44073E4E71121C3
:101E6000184600F025F8D8E74FF44A73DCE7002065
:101E700038BD00BF70220020381D0020C46800104B
:101E800000B545F247308BB0FFF756FA0122034602
:101E9000092101A89847DDE90332044912BA1BBAA7
:101EA000C1E900230BB05DF804FB00BF58220020FD
:101EB000012901F1FF3300F0B3805D490A784FEA50
:101EC000121C9F2A8CBF0CF1370C0CF1300C012B2B
:101ED00080F800C000F0A78002F00F02092A8CBF32
:101EE00037323032022B427000F09D804A784FEA40
:101EF000121C9F2A8CBF0CF1370C0CF1300C032BF9
:101F000080F802C000F08F8002F00F02092A8CBF17
:101F100037323032042BC27000F085808A784FEA65
:101F2000121C9F2A8CBF0CF1370C0CF1300C052BC6
:101F300080F804C077D002F00F02092A8CBF373234
:101F40003032062B42716ED0CA784FEA121C9F2A9B
:101F50008CBF0CF1370C0CF1300C072B80F806C04D
:101F600061D002F00F02092A8CBF37323032082BC1
:101F7000C27158D00A794FEA121C9F2A8CBF0CF10B
:101F8000370C0CF1300C092B80F808C04BD002F054
:101F90000F02092A8CBF373230320A2B427242D0EC
:101FA0004A794FEA121C9F2A8CBF0CF1370C0CF1B6
:101FB000300C0B2B80F80AC035D002F00F02092A32
:101FC0008CBF373230320C2BC2722CD08A794FEA58
:101FD000121C9F2A8CBF0CF1370C0CF1300C0D2B0E
:101FE00080F80CC01FD002F00F02092A8CBF3732D4
:101FF00030320E2B427316D0CA7911099F2A8CBF3A
:10200000373130310F2B81730DD002F00F02092AC6
:1020100094BF30323732102BC27318BF103002D049
:10202000002303707047184400230370704700BFFB
:102030005822002070B500F02DF90C234026194CD1
:10204000FF22A3670E201849FEF7DCFA3246002172
:10205000164803F0E9FF0125002380211348144AA4
:10206000418445700683068782604360136042F8AE
:10207000043C80F8213080F83B3043620D4B4FF038
:102080000056C360C362803B836204F059FA4FF488
:1020900080320949094B25642846E664C4F890104B
:1020A000DA6470BD000011509D0300207C1D0020EB
:1020B000840010500001105010D001000020115079
:1020C00001210E20FEF72CBA00220248114600F032
:1020D00001B900BF9C1D0020044B197021B14FF4C1
:1020E0000032034BC3F89020704700BF51230020FB
:1020F000002011500B785B0602D14B78052B00D0E5
:1021000070474B88014ADBB21360704700001150E2
:10211000CB782DE9F04103F0030EBEF1010FC3F3BC
:1021200001005BD0002791F802C0344C0CF07F0214
:102130005600898806EBDC1304EB43134FEADC15E9
:10214000D876C1F30A0185F0010083F802C0198333
:102150005870DF70D3008DBB2948043304EB821C18
:1021600003EB0008CCF808801F5082B3254BD20047
:102170001344CCF80430244B3F311A6821F03F015E
:10218000BEF1020F08BF4900114419601F4B7719B7
:1021900004EB47179942FA602BD82E4404EB461300
:1021A000D97E82F0A04282F480125B6842EA8162AA
:1021B00042F000421A600120BDE8F081104804EBB3
:1021C000821C0344CCF8283040F832704AB900220F
:1021D0000F4904EB4513D9605A60ECE70020BDE8D5
:1021E000F081D20002F1A04202F58012CCF8242046
:1021F000C1E7FFF7EDF8FA68CFE700BF7C1D0020CC
:10220000800010500400105084210020FF0F105057
:102210000001105004F094B98C4608B511460748E7
:102220001A460CF07F034FEADC1C0CEB430C00EB6E
:102230004C1000F04FF8012008BD00BF7C1D0020AD
:1022400011F07F0205D100290CBF02200120064BAE
:102250009866C909054B01EB420003EB40104FF4AF
:102260000062002104F060B9002011507C1D0020A4
:1022700011F07F0300D17047002205485B0003EB9B
:10228000D11300EB43106FF40061C27004F04CB93D
:102290007C1D00204FF0805209480A4908B50A4BBE
:1022A00002600A609968C94311F08051FAD14FF475
:1022B0008052064803F0B8FE0922054B5A6708BD54
:1022C0000020024000300240000002400000105098
:1022D0000000115000234FF0010C10B580F81AC017
:1022E0008282C3820161044604F01AF920B14FF4DE
:1022F0000032074BC3F89020204604F01DF910B1BE
:102300000123237710BD2046BDE8104004F000B93A
:10231000002011502DE9F04100241D4E05462346B2
:102320003278DFF878801B4F0DE03B6813EB4413E5
:1023300024D0DB682846984732780134E4B2511C37
:10234000A142234606DBA242A3EB0203EDD808EB31
:102350004313EEE7542200210F4803F065FE4FF0CF
:10236000FF330D482022041D4360C4E90133E360BC
:10237000FF21BDE8F041143003F056BE4FF0E023DA
:10238000D3F8F03DDB0700D500BEBDE8F08100BF0B
:10239000502300204817002018190020446900101D
:1023A000704700BF704700BF002070470020704793
:1023B000704700BF704700BF704700BF704700BF45
:1023C000024B5878003818BF0120704718190020B8
:1023D000024B1878C0F38000704700BF1819002026
:1023E0002DE9F047DFF8E4A09AF80030FF2B56D132
:1023F0000E4600293ED0002154220746294803F00A
:1024000013FE0022284C294B20461A70FEF78CFA46
:10241000274B28481C60284CFEF794FA204601F010
:10242000ABFD264A264B146023B12648FFF7C4FAB9
:10243000254B18600024234D23462A78DFF890901E
:10244000DFF884800EE0D8F8003013EB441311D08D
:102450005B687BB198472A780134E4B2511CA142F1
:10246000234611DBA242EED89B1A09EB43135B68AB
:10247000002BEFD14FF0E023D3F8F03DDB0700D580
:1024800000BE0020BDE8F087314638468AF800706B
:10249000FFF7D0FD0028EDD03846FFF711FE0120F0
:1024A000BDE8F087181900201019002052230020E1
:1024B0006C190020900E00207C0E00207019002066
:1024C000B91900105023002048170020980E002052
:1024D000446900102DE9F04FDFF8C8928BB099F8ED
:1024E0000030FF2B00F0F180A84CA94DDFF8B0A21E
:1024F000DFF8B4B226687369EFF3108272B6D3E8DE
:10250000CF0F01210028FAD1C3E8401F0028F6D1DF
:10251000BFF35F8FB261304607A901F077FB00235C
:102520007269C2E88F3FB36983F31088002800F016
:10253000CC809DF81D30013B072B00F27D83DFE846
:1025400003F0A7B1959D8E350A04089B002BD1D0CE
:1025500009989847CEE79DF8201001F07F0605EB1B
:10256000460000EBD11090F8343023F0010380F8DE
:10257000343090F8343023F0040380F83430002EE7
:1025800000F0A680037D9AF80020934280F09380AB
:10259000804A126812EB431300F090809E699DF808
:1025A0002120099B9DF81C00B047A3E79BF8003051
:1025B000002B00F083809BF80030013BDBB28BF8EE
:1025C00000309BF8003003F0FF00002B92D1704FD9
:1025D0009DF81C803B7843F001033B7097F8343042
:1025E00060F3000387F8343097F8343060F38203E7
:1025F00087F8343097F8353060F3000387F83530CA
:1026000097F8353060F3820387F8353000F06CFCC2
:102610009DF8203003F06002602A6CD0402A7CD004
:1026200003F01F03012B00F0C180022B00F081801A
:10263000002B60D1202A00F0E981002A5BD19DF8AF
:102640002130092B57D8DFE813F0B001A201560062
:10265000C101560095016B0156006001F4002B7812
:10266000D9077FF547AFFFF7A9FE43E7EB78DA0715
:102670007FF540AF0898FFF795FE3BE72B78D8072A
:102680007FF538AF2878C0F3C000FFF795FE31E73B
:102690009DF81C00FFF73EFE00F01CFC9DF820306A
:1026A000AB7027E79DF81C00FFF734FE00F012FC2A
:1026B000FFF780FE1EE7501C984211DA4FF0E0232E
:1026C000D3F8F03DDC0700D500BE0BB0BDE8F08FBD
:1026D000099B9DF821209DF81C0000F019FC09E7DA
:1026E0009B1A2D4A02EB431358E7FFF78DFB024676
:1026F000002840F082814FF0E023D3F8F03DDE0760
:1027000000D500BE9DF81C000021FFF799FD802137
:102710009DF81C00FFF794FDECE6204800F0E4FB78
:102720000121404608AAFFF733F900287FF4E2AE02
:10273000E8E79DF8241011F0700FDCD101F07F065E
:1027400007EB4600164B00EBD1101B78007D76009E
:10275000019698424FEAD116009659D35E1C8642E4
:10276000C0F26681C01A0C4B03EB4016002A00F041
:102770006381706900F0B8FB01214046736908AAC3
:10278000984700287FF4B6AEBCE700BF7019002060
:1027900018190020481700204469001091190010F2
:1027A00050230020980E0020522300209DF8243052
:1027B0000F2BA7D8AE4A3B441B791278934232D3F1
:1027C000511C99429EDBAB4E9B1A06EB4316706977
:1027D00000F08AFB01214046736908AA9847002847
:1027E0007FF488AE9DF8203013F060068AD19DF802
:1027F00021300A3B012B85D800F076FB9DF8213073
:102800000A2B00F0F281404608A900F0F1FA71E6C7
:10281000994B1B6803EB4016002A00F00D81002E37
:102820003FF470AFA5E7944A166816EB4316CED175
:1028300068E77B789DF822609E4200F04F817B78AC
:10284000002B40F0BE817E70002E00F04581701E8E
:10285000C0B2FFF7D9FA0346002800F05F81427842
:10286000022A40F05B81C17903F10906C1F34012ED
:102870001201C1F3801142EA41123146387820F04A
:10288000300002433A705A88CDF80C809A180192B1
:10289000019B8B4240F2A4814A780B2A00F0AF8161
:1028A0000123042A40F03A810026019A0096521A28
:1028B00092B202926E4A049312781DE06E4B1B682E
:1028C00013EB461800F02A81029AD8F810300398CA
:1028D0000591984708280246059906F1010303D996
:1028E0000298904280F0FF80DEB2614B00961A7829
:1028F000531C9E4200F31281009BB242A3EB0202E2
:10290000DCD85C4B03EB4218DEE77B7840468DF861
:102910001A300DF11A02012308A900F083FAE9E543
:10292000BDF82200030A013B020AC0B20E2B3FF69B
:10293000E9AE01A151F823F04D2B0010E929001058
:10294000892B001005270010052700106B2B0010A5
:10295000E9290010052700100527001005270010A1
:102960000527001005270010052700100527001077
:102970003F2B001008A800F0BDFA40469DF8221039
:10298000FFF7A2FB3B7843F002033B70B2E5BDF8D2
:102990002230012B7FF4B6AE3B78404623F008038B
:1029A00008A93B7000F024FAA4E540463B789A0859
:1029B00002F00202C3F340131343ADF81A300DF1D5
:1029C0001A02022308A900F02DFA93E5BDF822307F
:1029D000012B7FF497AE3B78404643F0080308A9EB
:1029E0003B7000F005FA85E5022A3FF47EAEFFF762
:1029F000DDFC024600283FF485AE4046538808A916
:102A000000F010FA00287FF475AD7BE69DF82430C5
:102A10000F2B3FF677AE164A3B441B791278934250
:102A20001DD2154A166816EB43167FF4A2AE69E66E
:102A3000002A7FF467AE00269DF8212002F0FD03F6
:102A4000012B1BD0002A7FF456AE019B009A3B4419
:102A5000134493F834304046C3F34003ADE7511CB0
:102A60009942FFF64FAE034E9B1A06EB431680E6E3
:102A7000502300204469001048170020BDF8223080
:102A8000B3B9012A99F8000000F08680FFF7D8FB5F
:102A9000019B009A3B44134493F8342042F0020215
:102AA00083F8342093F8342042F0010283F8342074
:102AB000002E3FF41FAD706900F016FA7369012112
:102AC00008AA40469847002000F00EFA97F83530E3
:102AD000DF073FF50FAD96E6FFF76CFC404608A90F
:102AE00000F086F906E5049B012B00F09E80002B88
:102AF00000F08A80002091F8028005E08CF80460E4
:102B00005FFA80FC63457FD908EB000C57FA8CFC18
:102B10009CF804E00130BEF1FF0FEFD04FF0E0234E
:102B2000D3F8F03DDA0700D500BE4FF0E023D3F82C
:102B3000F03DDB0700D500BE00237B70E2E5FEF729
:102B400023FF024600287FF458AFDBE5FFF758F972
:102B5000024600283FF4CFAD4046122308A900F0FA
:102B600061F900287FF4C6ACCCE5FFF71DFC0246F6
:102B700000283FF4C7AD4046137808A900F052F989
:102B800000287FF4B7ACBDE5BDF82410FFF740F98D
:102B900002460028EFD1B5E50293FFF769FB019AE1
:102BA000009B3A441A4492F83410029B63F34101AB
:102BB00082F8341092F8341063F3000182F8341074
:102BC00076E700214046FFF787FA4046FFF722FBF1
:102BD000BB7840460093FFF79DFB009BBB7032E63D
:102BE000DDF80C80FFF7E4FB78E74046012308A9F5
:102BF0000DF11A028DF81A6000F014F97AE40A78DF
:102C0000CB7811444A784CE633461048049202913E
:102C100000F076FE0E4B049A02991B781144009A3C
:102C200001339342BFF634AE78E7D8F810C00948B4
:102C3000844508BF02235DE74FF0E023D3F8F03D61
:102C4000DB077FF557AC00BE54E400BF2C19002011
:102C500050230020213300102DE9F84F0A9F002A4D
:102C600040D00C461E4615464FF0000ADFF87C9017
:102C7000DFF87C8018E0204698F8021099F800B040
:102C800000F00EFEE0B121465846FFF741FAF0B1E0
:102C9000A2780AF1010AD10916BF0B9B3A701A708B
:102CA0002278AA4514441DD06278052A0FD1E17814
:102CB00001F00301B1420AD1A27812F0700FDAD00C
:102CC0004FF0E023D3F8F03DDA0700D500BE4FF017
:102CD000E023D3F8F03DDB0702D40020BDE8F88FF5
:102CE00000BEFAE70120BDE8F88F00BF980E002073
:102CF0001819002038B58B7813F0700F08D04FF0FA
:102D0000E023D3F8F03DDB0700D500BE002038BD3E
:102D1000074A084B0C46084691781D7800F0C0FD24
:102D20000028ECD021462846BDE83840FFF7F0B92E
:102D300018190020980E00200B46064A0648116814
:102D4000DA09343203F07F0302EB4303184400F046
:102D500061BD00BF6C190020181900200B46064AFF
:102D600006481168DA09343203F07F0302EB4303AB
:102D7000184400F079BD00BF6C190020181900201C
:102D800010B5194801F07F0C00EB4C0000EBD1109E
:102D900090F834C01CF0010F08D04FF0E023D3F8B6
:102DA000F03DDA0700D500BE002010BD00F1300470
:102DB00094F804C00D484CF0010C007884F804C06D
:102DC000FFF72AFA0028F0D14FF0E021227960F3D2
:102DD00000022271227960F382022271D1F8F03D63
:102DE000DB07E1D500BEDFE718190020980E0020B0
:102DF00030B50B4C8C46A64605460868496800234A
:102E0000AEE803009CF800102846C943C4E9023329
:102E1000BDE830401A4601F08001FFF7B1BF00BFA6
:102E2000D81800202DE9F041284F4FF00008BE4689
:102E30008C46064608684968BA60AEE80300A7F801
:102E40000E801546BCF80620934228BF1346BB816E
:102E50009AB11C4633B3DDB197F90030402C28BF3E
:102E60004024002B29DB414623463046184AFFF711
:102E700087FF68B10120BDE8F0819CF8001013467F
:102E8000C943304601F08001FFF77AFF0028F1D1F5
:102E90004FF0E023D3F8F03DDB0700D500BE002063
:102EA000BDE8F0811A46397801F0800123463046AA
:102EB000FFF766FF0028DDD1EAE7224629460448ED
:102EC00003F02AF98021024AF0E700BFD818002059
:102ED000981800200022034BC3E90022C3E9022214
:102EE0001A617047D8180020014B1861704700BF65
:102EF000D818002030B40246044C00252346006850
:102F00005168C4E9025530BC03C37047D81800208B
:102F100070B53D4CC90922780646B1EBD21F1D465B
:102F200082B017D053B14FF0E023D3F8F03DDB0768
:102F300002D4002002B070BD00BEFAE72146FFF7C0
:102F4000D9F823691BB12246032130469847012056
:102F500002B070BD94F90030002B06DBA068002899
:102F6000E7D02A46294903F0D7F8E089A168E38829
:102F7000284480B229448342E081A16016D03F2DCD
:102F800014D9A28994F90040131A9BB2402B28BF90
:102F90004023002C27DB90424FF0000131D01B4A28
:102FA0003046FFF7EDFE0028D1D1BCE7236923B1FD
:102FB00002213046144A984760B121780023C94362
:102FC00030461A4601F08001FFF7DAFE0028AAD049
:102FD0000120BDE701463046FFF732F98021304637
:102FE000FFF72EF9B3E7904208D01A46074801933D
:102FF00003F092F88021054A019BD1E7802100224D
:10300000CEE70A46CCE700BFD81800209818002069
:103010002DE9F0410446FFF7D3F908B9BDE8F08186
:10302000FFF7D6F905460028F8D1C82304FB03F3BF
:10303000124EF718F9780029F0D010331E443046AC
:1030400000F0D2FD3F28E9D92846F978FFF774FE51
:103050000028E3D0304600F0C7FD3F28F97808D9B2
:10306000074A284602EBC4124023BDE8F041FFF7AF
:1030700087BE2846BDE8F041FFF770BED01700209C
:103080004C17002010B50446FFF79AF908B9002044
:1030900010BDFFF79DF90028F9D1C822034B02FBB0
:1030A0000433187900F0010010BD00BFD0170020D4
:1030B000C82208B5024B02FB003000F07BFD08BDC2
:1030C000E01700202DE9F8434FF6FF73C8249A4219
:1030D00028BF1A4600FB04F4DFF8748004F11005E1
:1030E0004544064692B2284600F0DAFD0746FFF74F
:1030F00067F910B93846BDE8F883FFF769F98146EA
:103100000028F7D1A04498F80330002BF2D02846CD
:1031100000F06AFD3F28EDD9484698F80310FFF704
:103120000BFE0028E6D0284600F05EFD3F2898F808
:10313000031007D9054A4846402302EBC612FFF7A1
:103140001FFED7E74846FFF709FED3E74C170020DC
:10315000D01700202DE9F0410446FFF731F910B9EE
:103160000020BDE8F081FFF733F905460028F7D1CC
:10317000C82604FB06F6DFF8648006F124074744FE
:10318000384600F017FD0028EAD0B044284698F8E9
:103190000210FFF7D1FD0028E2D00F4E384606EBB3
:1031A000C4163146402200F07BFD98F80210044618
:1031B00068B1034632462846FFF7E2FD50B94FF0AA
:1031C000E023D3F8F03DDB07CAD500BEC8E7FFF720
:1031D000C5FDC5E72046C4E78C170020D0170020A6
:1031E00038B54FF6FF75C823AA4228BF2A460B4CB4
:1031F00092B203FB00440546204600F00FFE034652
:1032000020461C4600F0D6FC3F2801D8204638BD99
:103210002846FFF79FFF204638BD00BFF417002067
:10322000C82208B5024B02FB003000F0DDFC08BDEF
:10323000F4170020F0B5002483B0C82200211748FD
:1032400002F0F2FEFF234FF4E1310822144804702B
:1032500012480094074643718160827300F138017F
:1032600001234022103000F075FC0123402207F1B9
:103270007801009307F1B80607F1240000F06AFC1A
:1032800007F1C0053046FDF74FFB2846FDF74CFB24
:10329000C7E90746C7E90C5403B0F0BDD0170020BA
:1032A000CC1700200A4A116B136A61B13BB10023AD
:1032B000C2E90C33D361002313620120704701205F
:1032C000C2E90C337047002BF7D0D161F3E700BFA0
:1032D000D0170020002210B50E4C0F482378026052
:1032E0000271DA0707D59B070BD5BDE81040012115
:1032F0000A4800F05DBE103000F03EFE23789B07C8
:10330000F3D4064800F038FEBDE810400121034820
:1033100000F04EBECC170020D0170020F41700207C
:10332000F0B54B7983B0022B02D18B79022B03D0FD
:103330000025284603B0F0BD274FBB783BB14FF0C6
:10334000E023D3F8F03DDB07F2D500BEF0E78B7841
:1033500006463B700B78CC186178242908BF0925F4
:1033600007D036E023781C4461782B4424299DB291
:1033700007D1AA42F6D20020FFF74AFE284603B042
:10338000F0BD0B46052916D0042BF4D163790A2B26
:10339000F1D1124B27780193013300930223304679
:1033A0001A46E119FFF758FC0028C8D00E3517FA65
:1033B00085F5ADB2DFE721463046FFF79BFC0028DC
:1033C000BDD0A3787B7023785A191C44637895B2DA
:1033D000DAE70B460925D5E7D0170020D2170020E1
:1033E000137803F06003202B08D170B5264C938826
:1033F00094F800C09C4503D0002070BD00207047A9
:103400005378203B032BF7D8DFE803F027230D0286
:1034100001292ED003291ED11C4BE3B10020518875
:10342000AFF3008017E0012923D0032913D1558879
:10343000174805F0010686F00101257100F0B8FD7E
:10344000144B43B131460020C5F34002AFF3008076
:1034500001E0012911D0012070BD01290DD00329FF
:10346000F9D10D4B002BF6D000200C49FEF7ACFA39
:10347000F1E71146FFF7BCFCEDE711460723074AC9
:10348000FFF7D0FCE7E700BFD017002000000000E6
:10349000F417002000000000C9190010D817002000
:1034A0002DE9F843354E0C46F27807468A421D4610
:1034B0003DD0B3788B4212D04FF0E023D3F8F03DEB
:1034C000DB0732D40020BDE8F8832D4B23B12D4813
:1034D00000F080FB00284DD00020FFF799FDB37865
:1034E000A34201D00120EEE7274B13B10020AFF338
:1034F00000800020FFF72EFE0028F3D1234800F0C3
:1035000059FB0028EED1002DECD015F03F05E9D194
:103510003846B178FFF710FC0028E3D02B462A4646
:103520003846B178FFF72CFCDCE700BECAE79AB258
:10353000174906F1100000F071FC164B002BC4D0A7
:103540007379FF2BC1D0002DBFD0DFF8448008EB8A
:10355000050902E0C845B8D0737918F8012B9A42E2
:10356000F8D1084800F036FB0028F3D17179AFF3A9
:103570000080EFE7AFF30080AEE700BFD017002078
:1035800000000000E017002000000000F4170020F9
:103590004C17002000000000F0B54FF4137285B006
:1035A0000021124802F040FD402600234FF48075B0
:1035B0000E4F0F4C07F5A6721946CDE90246009250
:1035C00001951A4607F5947000F0C6F900233846B5
:1035D00007F128013444009101221946CDE9024641
:1035E0000195043000F0B8F905B0F0BDB41A002020
:1035F000341A002008B5054800F0DAF9034BA3F5AA
:10360000927000F0D5F9012008BD00BFDC1B00203E
:1036100038B50025064C04F59870257000F0ACFC18
:1036200004F10C0000F0A8FC84F82951657138BD44
:10363000B41A00202DE9F8434B79FF2B51D1354EB8
:1036400096F82931002B4CD196F80580B8F1000F7F
:1036500047D18B780C7833700B790F460C44ABB3A1
:103660008146A51803E0A54230D923781C4463782D
:10367000052BF8D1AC4229D221464846FFF73AFB48
:1036800040B3A378DB092FD1234800F075FCA37861
:1036900096F8282186F82931A3884846C3F30A03FF
:1036A000A3F50073B3FA83F35B0963F341021B498B
:1036B00086F8282100F0EAF960B123783A7908F118
:1036C00001081C445FFA88F39A42D0D8E11B88B203
:1036D000BDE8F8834FF0E023D3F8F03DDB0700D5D9
:1036E00000BE0020BDE8F8830D4800F045FCA3783B
:1036F00032797371A3880B49C3F30A03A3F50073EE
:10370000B3FA83F35B0963F341020020327100F0E6
:1037100085F9D2E7B41A0020E41B0020DC1B00204E
:10372000C01A0020B81A002070B51B4C064694F849
:1037300029C11D468C4511D063798B4201D00020F0
:1037400070BD164B1BB10020A9B2AFF3008030460C
:10375000134900F063F9C8B1012070BDB4F83431E9
:1037600063B9104B23B100200F49AAB2AFF3008018
:1037700030460E4900F08AF90120EEE7D4F82C110A
:10378000AAB204F5987000F049FBEAE72A463046F1
:10379000034900F00FF9DFE7B41A00200000000031
:1037A000B81A002000000000341A0020DC1B0020A2
:1037B00010B582B0C9B101280CD80B7853B1144CA4
:1037C000012B235402D0012002B010BDFEF708FEE9
:1037D0000028F8D14FF0E023D3F8F03DDB0702D406
:1037E000002002B010BD00BEFAE70124084601A97E
:1037F000ADF80440FEF7F4FD38B94FF0E023D3F8FC
:10380000F03DDA07EDD500BEEBE7014B1C70E8E7B1
:103810000C190020F8B5037813F001041AD10378CD
:1038200005465A07C3F3800701D52046F8BD0E466A
:103830004FF0FF31304602F067FE2B7813F00104A1
:103840000BD12B785B0709D42B78012443F00403B8
:103850002B7003E000242046F8BD3C46304602F0C1
:103860005BFE2046F8BD00BF70B50C4605464FF024
:10387000FF31204602F048FE2B78C3F380065B0739
:1038800008D52B7813F0010311BF00262A7863F3C3
:1038900082022A70204602F03FFE304670BD00BF13
:1038A000C378828803F003000228C2F30A0215D00D
:1038B00003280AD001281CD1022940F2FF3308BF97
:1038C0004FF4806393420DD37047022914BF402305
:1038D0004FF48063934205D30120704702290AD038
:1038E000402AF9D94FF0E023D3F8F03DDB0700D5AB
:1038F00000BE00207047B2F5007FEDD0F2E700BFB8
:103900000A44914226D291F801C0BCF1050F05D0BE
:1039100091F800C061448A42F5D8704700B591F82B
:1039200002C00CF07F0E00EB4E0E4FEADC1C0EF8CE
:103930000C3091F800C061448A4209D991F801C065
:10394000BCF1050FEBD091F800C061448A42F5D874
:103950005DF804FB704700BF2DE9F0418E4682B050
:10396000009390F800C0089EBDF824706EF3000C20
:1039700004461546012331463A4600F808CBBDF807
:103980002C8000F0E7F806B13FB901200A9BA4F8AB
:103990000280636002B0BDE8F08104F11C0630468D
:1039A000FCF7C2FF0DB135460026C4E90556ECE729
:1039B00001207047F8B50746084640F2FF13154648
:1039C00010F8082B0C4612F0020F0CBF3F261E46C3
:1039D00000F0F0F828B925B12E4202D12378DA0799
:1039E00001D50020F8BD38466178FFF7A5F9002819
:1039F000F7D0237813F0010307D04FF0E023D3F87A
:103A0000F03DDB07EDD500BEEBE71A46384661789E
:103A1000FFF7B6F90028F0D0F8BD00BF70B501F18E
:103A20000805064628460C4600F0C4F810B1237875
:103A3000DA0701D5002070BD30466178FFF77CF9C8
:103A40000028F7D028466288616800F029F92378B9
:103A5000054603F0010340B173B14FF0E023D3F802
:103A6000F03DDB07E6D500BEE4E7002BE2D13046AF
:103A70006178FFF773F9DDE70346626830466178E5
:103A8000FFF77EF90028E8D0284670BD8A892DE925
:103A9000F0410B780C46064622B9DD0734D50020EC
:103AA000BDE8F08104F108079907384647BF4FF495
:103AB0007E484FF400754FF6C078402500F094F82A
:103AC0008542ECD82378DA07E9D430466178FFF7ED
:103AD00033F90028E3D0384600F086F82378854291
:103AE00003F001032DD8BBB9658808EA00084545F5
:103AF00028BF454661785DB362682B463046FFF7C4
:103B00003FF948B12846CBE74978FFF715F9002877
:103B1000C5D02378D80707D54FF0E023D3F8F03D80
:103B2000DB07BCD500BEBAE7638861783BB1626849
:103B30003046FFF725F90028EED06088B0E71A4636
:103B4000F6E7002BABD130466178FFF707F9A6E71F
:103B50002A46D2E72DE9F041B2F5004F9DF81880D2
:103B600024D80446C06817460E461D4618B14FF0CB
:103B7000FF3102F0C9FC206918B14FF0FF3102F0AB
:103B8000C3FC0022C5F30E03E06843EAC833628138
:103B90002660A780E380228108B102F0BDFC206985
:103BA00008B102F0B9FC0120BDE8F0810020BDE8B9
:103BB000F08100BF038942899BB292B28088934210
:103BC00036BFC2EB40029B1A9B189BB2984228BF9B
:103BD000184670470289438990B29BB2C01AB0FA66
:103BE00080F04009704700BF038942899BB28088FA
:103BF00092B2934236BFC2EB40029B1A9B189BB213
:103C0000984286BFC01A80B20020704738B504467B
:103C100000690D4618B14FF0FF3102F075FC2189A3
:103C2000638989B29BB2A288994236BFC3EB420036
:103C3000C81A401880B250B3824209D291422CBFB8
:103C4000891A89188BB29A42638103D89B1A9BB256
:103C50009A42FBD9E2882168C2F30E0202FB0311EB
:103C6000284602F059FA6189012589B24B1C9BB2A2
:103C70009942A2880ED9002302FA05F15B1A9BB281
:103C80002069638108B102F047FC284638BD05462B
:103C900063899BB2B3EB420F4FEA4201F0DBEDE7E1
:103CA0002DE9F047064600698846914618B14FF065
:103CB000FF3102F029FC338974899BB2A4B2B58824
:103CC000A34236BFC4EB45071F1BFF18BFB2002F2E
:103CD0004AD0BD4240D3B94528BFB946A5421FFAD4
:103CE00089F703D8641BA4B2A542FBD9B6F806A095
:103CF0002B1B31689BB2CAF30E029F42924602FB15
:103D0000041123D913FB02F31FFA83F94A464046F4
:103D10007D1B02F001FA621912FB0AF2316808EB0E
:103D2000090092B202F0F8F97289B58892B2D319FB
:103D30009BB29A421AD96A009B1A9BB2306973816E
:103D400008B102F0E9FB3846BDE8F087404607FBC2
:103D500002F202F0E1F9E7E7AB422CBF5B1B5B1913
:103D60009CB22F467481B6E773899BB2B3EB450FC3
:103D70004FEA4502E2DBDFE7F8B50446C0680E46CD
:103D800018B14FF0FF3102F0BFFB2589238961890B
:103D90009BB289B2A2888B4236BFC1EB42015B1A4B
:103DA0005B189BB29A42ADB208D8E779FF0905D1FA
:103DB000E06808B102F0B0FB3846F8BD954228BF74
:103DC0002B4618D39B1A9BB29342FBD2E288206801
:103DD000C2F30E0202FB0300314602F09DF96B1C98
:103DE0009BB29D42A28812D9002351005B1A9BB25C
:103DF00001272381DCE7E2882068C2F30E0205FB7D
:103E00000200314602F088F90135A288ABB2B3EB6B
:103E1000420F4FEA4201EBDBE8E700BF2DE9F04F2C
:103E2000174683B0002A75D00646C068894618B187
:103E30004FF0FF3102F068FBF379B6F80880728921
:103E4000DB09B5881FFA88F892B23CD1904536BF9D
:103E5000C2EB4502A8EB0202424492B2AA425ED2F1
:103E6000AA1A92B2BA4228BF3A46B6F806B097B23A
:103E70007B1B08EB070ACBF30E0B9BB21FFA8AFAE7
:103E8000A845444603D3641BA4B2AC42FBD22D1B0D
:103E90003068ADB2BD420BFB040057D349460BFB63
:103EA00007F202F039F9B288D0454FEA420302D84E
:103EB000BAEB420F03DBAAEB03031FFA83FA3D467A
:103EC000A6F808A02CE0B6F806B0AF42CBF30E0B74
:103ED0002FD2904536BFC2EB4501A8EB0201414409
:103EE00089B2680039447B1B81429BB20DDB02EB37
:103EF000050A1FFA8AFAAAEB07081FFA88F8424552
:103F000037D9A8EB00001FFA80F807EB080A1FFA60
:103F10008AFAB5E71546284603B0BDE8F08F0025BC
:103F2000F0680028F7D002F0F7FA284603B0BDE8A1
:103F3000F08F002DF4D07F1B02EB050A0BFB0799D5
:103F400090462F4600231FFA8AFA99E715FB0BF5D6
:103F5000ADB22A464946019302F0DEF8019B306873
:103F6000E21812FB0BF209EB050192B202F0D4F851
:103F700099E7404584DCC4E710B50446C06818B131
:103F80004FF0FF3102F0C0FA206918B14FF0FF3155
:103F900002F0BAFA0023E0686381238108B102F0DD
:103FA000BBFA206908B102F0B7FA012010BD00BFCA
:103FB00038B50446C0680D4618B14FF0FF3102F025
:103FC000A3FA206918B14FF0FF3102F09DFAE379AE
:103FD000E06865F3C713E37108B102F09DFA206948
:103FE00008B102F099FA012038BD00BFF8B50446C7
:103FF0000D46EFF3108772B60C4B9B6853F82060A8
:10400000B14204D00A4B9E420BD2FDF7E1F9074BB7
:104010009B6843F82450BFF35F8F87F310883046C6
:10402000F8BD044B9E42F2D3EFE700BF00ED00E085
:10403000100100101C0100102DE9F041044601F0B0
:10404000B5F8364A364E1368013313603368002BD7
:1040500034D0344FE36A3A684AB3334D3349344875
:104060000A6804F1040C01320A6002689A4238BFFF
:10407000036003EB830305EB830041689B00EA5870
:10408000D1F808E0A160C4F80CE00132CEF804C019
:10409000C1F808C06061EA5001F096F83B6823B1AE
:1040A0003268E36AD26A9A4210D3BDE8F08132687E
:1040B0001D4DD26A9A4298BF3460CFE734601368CE
:1040C000012B07D0E36A184D164FC7E7BDE8F04152
:1040D00001F060B8144D2F4605F1780838461437C2
:1040E00001F0DCF94745F9D1DFF86080114F404617
:1040F00001F0D4F9384601F0D1F90F4801F0CEF9BA
:104100000E4801F0CBF90E4801F0C8F90D4BC3F889
:1041100000800D4B1F60E36A024F9FE7842200205E
:10412000CC21002014230020E02100209022002038
:1041300094220020D4220020002300202C230020E1
:1041400018230020D4210020D8210020C0220020E4
:1041500080B5124D124F134EDFF84C8014E001F081
:1041600025F8FB68DC68201D01F0CEF93368013BBF
:1041700033602B68013B2B6001F026F8206B00F0C8
:10418000C7FF204600F0C4FF2B68002BE7D1D8F80A
:104190000030012BF8D900F0FDFFF5E78822002060
:1041A0002C23002084220020E02100202DE9F04F64
:1041B0004C4B83B01D6801351D60002D67D04A4906
:1041C0000B689D4277D3494E33681868002800F089
:1041D00084800020AA4607468146DFF828E1444C47
:1041E000019147E05869D3E9022CC2F808C0CCF825
:1041F000042042688A42026808BFC0F804C0013A3D
:104200005F610260986A70B1D3E9072CC2F808C0F8
:10421000CCF804204268AA42026808BFC0F804C073
:10422000013A9F620260DA6ADEF8000002EB820C5B
:1042300004EB8C088242D8F8040054F82C50D0F8D3
:1042400008B09860C3F80CB0CBF804108160C3F8D4
:104250001480284B88BFCEF80020196801353368D8
:1042600044F82C50C96A1B688A4288BF49F001098A
:10427000002B30D03368DB68DB685A68191D924523
:1042800003F11805AED2019948460A6014E0174BB5
:10429000194A186811681960184910600A680132D3
:1042A0000A601A68126882B94FF0FF330E490B603A
:1042B0000B689D4287D20020114B1B68002B18BF52
:1042C00040F0010003B0BDE8F08F1B680649DB68D1
:1042D0001B680B6074E7484601994FF0FF330B6091
:1042E000EAE700BF40230020F4220020D421002070
:1042F000E0210020CC210020D8210020F82200203D
:104300004C230020942200202DE9F843950080469C
:1043100028460F46994600F0EFFE002872D0064668
:10432000702000F0E9FE0446002868D0043D7022A9
:104330000021354401F078FE25F007052663002FA3
:104340003BD03B7884F83430002B36D07B7884F82F
:10435000353093B3BB7884F8363073B3FB7884F888
:10436000373053B33B7984F8383033B37B7984F8F2
:10437000393013B3BB7984F83A30F3B1FB7984F860
:104380003B30D3B13B7A84F83C30B3B17B7A84F8CC
:104390003D3093B1BB7A84F83E3073B1FB7A84F838
:1043A0003F3053B13B7B84F8403033B17B7B84F8A2
:1043B000413013B1BB7B84F84230089F201D052F8C
:1043C00028BF0527E762676401F074F8C7F10607A4
:1043D00004F1180001F06EF84B4642462846216B66
:1043E000A7612461646200F011FF099B206003B1A2
:1043F0001C602046FFF720FE0120BDE8F883304610
:1044000000F086FE4FF0FF30BDE8F883F8B50446B3
:10441000254E00F0CBFE002C3FD0271D384601F082
:1044200073F8A36A1BB104F1180001F06DF81F4A7C
:104430001F4D1368013313603368A3422B681FD0EC
:104440001C4A1368013B13601B4B1A68126892B137
:104450001A681A4BD26812681A6000F0B5FE206B19
:1044600000F056FE204600F053FE2B6813B133686F
:10447000A34214D0F8BD4FF0FF32104B1A60ECE7A6
:10448000002BDDD039460E4801F018F80D4A1368AC
:104490000133136000F098FEE7E73468BDE7BDE83C
:1044A000F84000F077BE00BFCC2100209022002011
:1044B0001423002084220020D4210020F422002094
:1044C0002C2300208822002070B504464B4E00F0BB
:1044D0006DFE002C48D0251D284601F015F8A36A72
:1044E0001BB104F1180001F00FF82946444800F010
:1044F000E5FF94F86C30434D012B04BF002384F892
:104500006C3094F86D30012B04BF002384F86D30BB
:1045100094F86E30012B04BF002384F86E3000F055
:1045200053FE2B6893B93368A34200D070BD2B684B
:104530001BBB3549324A0968126891421BD0334B84
:104540001B68F3B10122324B1A6070BD00F02EFEE1
:10455000304B1A6812684AB11A682F4BD268126839
:104560001A6000F031FEDEE73468B4E74FF0FF3246
:10457000294B1A60F5E7336070BDBDE8704000F06C
:1045800009BE234A254C13602068254A00EB8003AE
:1045900052F8233081007BBB431E03EB830152F8AA
:1045A00021509900B5B9831E03EB830152F82150C5
:1045B00099007DB9C31E03EB830152F82150990085
:1045C00045B9031F03EB830152F8215099000DB93F
:1045D000431F9900194402EB8100024641680832EA
:1045E00049689142416008BFC168CA6808BF41601C
:1045F00032602360336870BD0346EBE7CC210020B6
:104600001823002014230020842200208C22002064
:104610004C230020D4210020F422002094220020EA
:10462000E0210020F8B5234D2B6883420BD00446CF
:1046300048B100F0BBFD204B62699A4204D0BDE84E
:10464000F84000F0C1BDF8BDA36A1C4A9342F6D001
:10465000002BF4D194F86C30012BF0D094F86D302D
:10466000012BECD094F86E30012BE8D0261D30469B
:1046700000F04AFF124AE36A11688B4288BF136058
:104680002A681049D2F82CE003EB830201EB820C7C
:10469000DCF8045092008858AF6801307345A5607B
:1046A000E7607E60AE60C4F814C08850C7D900F0DF
:1046B00071FDC4E7CC210020182300200023002036
:1046C00094220020E02100202DE9F8434FF40070EF
:1046D00000F012FD88B30646702000F00DFD044680
:1046E00078B30027DFF898903946702201F09CFCDF
:1046F00006F5FE75C4E90C690626201D00F0DAFEF9
:1047000025F0070504F1180000F0D4FE3B46174AD7
:10471000216B28462461A661646200F077FD0346A0
:10472000DFF86080236020460127C8F80040FFF7CB
:1047300083FC00F09FFCB8420AD00D4B1B68BDE81B
:10474000F883304600F0E4FC094B1B68BDE8F883B1
:1047500000F036FE4FF0FF3400220649064B0748B2
:1047600004600F601A6000F08DFDE6E75141001013
:10477000846900101423002040230020F42200202C
:1047800049444C45EC220020024A1368013313606F
:10479000704700BF8C2200202DE9F04FDFF86C81BC
:1047A00083B000F003FDD8F80030013BC8F80030BA
:1047B000D8F800E0BEF1000F40F081804C4B1B6840
:1047C000002B7CD0DFF848C1DCF80030002B00F073
:1047D0008B80484BDFF83C91474E0193DCF80C305E
:1047E000DB689A6AD3E9070154688160486003F185
:1047F0001800844208BF51601168C3F828E00139ED
:1048000011605A69D3E90241A1604C6054681D1DD2
:10481000AC4208BF51601168D9F80000013911603D
:10482000DA6A8242354802EB820188BFC9F800206B
:10483000006806EB81077C68D0F82CA056F82100B0
:10484000D4F808B0013052459C60C3F80CB0CBF8E6
:104850000450A5605F6146F8210037D90122019B11
:104860001A60DCF80030002BB8D1254B1A681268AA
:10487000002A34D01A68234BD26812681A60224D7D
:104880002C689CB10126019F05E0FFF78FFC00B169
:104890003E60013C09D0D8F80030002BF5D02B68E1
:1048A000013C03F101032B60F5D12C60019B1B68D7
:1048B0002BB1124B01241B6800F06CFC00E00024BB
:1048C00000F082FC204603B0BDE8F08FDCF8003039
:1048D000002B83D10A4B1A681268002ACAD14FF004
:1048E000FF32084B1A60CAE7024B0193C7E700BFCB
:1048F000842200204C230020E0210020CC21002035
:10490000D4210020F4220020FC2200208C22002050
:10491000002300209422002008B900F03BBC194A73
:104920002DE9F04113680446013313601649174B13
:10493000174D184A0E681768D3F8008028680430AD
:1049400000F0E2FD2B68A41929685C600DD238469E
:10495000043100F0C1FD104B1A68944238BF1C604E
:10496000FFF71AFF48B1BDE8F0814046043100F07E
:10497000B3FDFFF711FF0028F5D1BDE8F04100F0CD
:1049800009BC00BF8C22002040230020D821002039
:10499000CC210020D4210020F4220020014B1868F3
:1049A000704700BF40230020054B1B680BB9FFF781
:1049B000FDBB044A0020136801331360704700BF39
:1049C0008C220020FC220020234B1B681BB10122FB
:1049D000224B1A607047214A30B4214C1360206882
:1049E000204A00EB800352F8233081008BBB431E2A
:1049F00003EB830552F825509900B5B9831E03EBEC
:104A0000830552F8255099007DB9C31E03EB830539
:104A100052F82550990045B9031F03EB830552F85E
:104A2000255099000DB9431F9900194402EB8100EC
:104A300002464168083249689142416008BFC16836
:104A4000094A08BF4160C96811602360136830BC1F
:104A500070470346E9E700BF8C2200204C2300206A
:104A600094220020E0210020CC2100202DE9F041FB
:104A70000C461E4D2968183100F02EFD1C4B1D49B7
:104A80001D4A0E681768D3F800802868043000F0CB
:104A90003BFD631C15D02B68A41929685C600AD201
:104AA0003846043100F018FD144B1A68944238BFA0
:104AB0001C60BDE8F0814046BDE8F041043100F0E3
:104AC0000BBD0F4B29685A681C688A602E68013438
:104AD000286829681C602D68946804300431F460EB
:104AE000606091606B61BDE8F08100BFCC21002067
:104AF000D821002040230020D4210020F4220020CF
:104B00001823002094462DE9F0412B4C0D462368D4
:104B10004168D4F80080D9612768036826688A68EC
:104B2000D4F800E0013318371836C8F82020576051
:104B30008E60224ACEF8280021490360214BBCF147
:104B4000000F1AD0096812681B682068043000F052
:104B5000DBFC1D4B19685A680131196021689068A7
:104B60008A602168C860216804314160216820683A
:104B7000043191604361BDE8F0810E681768D3F895
:104B800000802068043000F0BFFC2368AD19216864
:104B90005D6005D34046BDE8F041043100F09CBCA7
:104BA0003846043100F098FC084B1A68954238BF2B
:104BB0001D60BDE8F08100BFCC210020D421002081
:104BC00040230020D821002018230020F4220020B8
:104BD000F0B40026C368DB689A6AD3E907018160F4
:104BE0004860506803F11804A042274808BF51608C
:104BF000116805680139D86A9E621160002D2FD1B5
:104C0000D3E902415A69A1604C6054681E1DB44248
:104C100008BF51601168013911601C4A1168814256
:104C20001B4938BF106000EB800201EB82077D68F2
:104C30009200D5F808C08C589D60C3F80CC0CCF821
:104C40000460AE605F61134B01341B688C50DB6AFB
:104C5000834215D2F0BC01230F4A184613607047F7
:104C60000E4A15685168013515608D68D9611D625D
:104C70006C608C609A62074B1B68DB6A8342E9D3E5
:104C8000F0BC0020704700BF8C220020942200203E
:104C9000E0210020CC2100204C2300200023002014
:104CA000034A044B12681B68C0E90023704700BF29
:104CB000F822002040230020F8B50D46044600F0FD
:104CC00075FA2B68124A581C11681BD0D4E9006091
:104CD000DFF840C0DCF80070BE4208D0884206D839
:104CE000002301242B6000F06FFA2046F8BD0F1A54
:104CF000BB42F5D95B1ADCF80010126803442B6044
:104D0000C4E90012002400F05FFA2046F8BD00BF9D
:104D100040230020F82200200122014B1A60704736
:104D20004C2300202DE9F04FB74FDFF8E4B2DFF855
:104D3000E482B64D87B03B681C68002C40F01D81B2
:104D4000FFF722FDFFF72AFEDBF8003081468342A1
:104D500048D8D8F80030CBF800001A68B2FA82F2CE
:104D600052092868A4EB090100F022FEFFF714FDA8
:104D7000002800F024810023CDE90233CDE904337B
:104D80000022286802A900F00FFC0028D3D0029B63
:104D90000498002BC0F2E980DDF810A0DAF8143096
:104DA0001BB10AF1040000F0AFFBFFF7F7FDDBF8E1
:104DB00000300190984243D3DDE90123013BCBF859
:104DC0000020082BDCD8DFE803F06161C0A5C761D3
:104DD00061C0A50022F001028AF824205046DAF8CA
:104DE000203098473B681A68002A00F0D880DA68BB
:104DF000D2F80CA014680AF10406304600F084FBD7
:104E00009AF824205107E5D503E05046DAF820202F
:104E10009047DAF81820CAF810A01119A418CAF897
:104E20000410F2D33146D8F8000000F055FBD5E766
:104E300021F0010189F824104846D9F8203098471C
:104E40003B681968002900F0B480D968D1F80C904B
:104E50000C6809F10406304600F056FB99F824105E
:104E60004807E5D503E04846D9F820108847D9F827
:104E70001810C9F8109008196418C9F80400F2D382
:104E80003146D8F8000000F027FBD5E79AF8240057
:104E90000399DAF81840019A0B1940F001068AF8D4
:104EA00024602CBF012600269342CAF80430CAF8B9
:104EB00010A000F28780511A8C423FD8410712D4CB
:104EC00020F001008AF824005046DAF82030984794
:104ED00056E78C4200F2C680DAF8203050469847F8
:104EE0003346DAF81840019AE6182CBF012000205A
:104EF000B242A2EB0301CAF80460CAF810A0E8D2DB
:104F00009A4201D20028E7D038680AF1040100F083
:104F1000E3FAD9E70399019A9AF82430881843F004
:104F2000010390428AF82430CAF81810CAF8040025
:104F3000CAF810A04BD800293FF422AFD8F80000DF
:104F40000AF1040100F0C8FA1AE79AF8243023F0B5
:104F500001038AF8243013E79AF824309A0777D5AA
:104F600023F001038AF824300AE7039B0599984748
:104F7000029B002BFFF604AF0EE7DB681C68FFF70F
:104F800003FCFFF70BFDDBF80030814683423FF660
:104F900029AF8442CBF800001FD90022E1E6D8F8FF
:104FA0000020CBF800903A60C8F80030FFF7F4FB1F
:104FB000E1E6D8F80010C8F800303960FCE600F0EF
:104FC000E9F8D8E6914202D9002E3FF477AF38686D
:104FD0000AF1040100F080FAD2E6FFF7DDFB3B683E
:104FE000DB68DE68331D1846019300F08DFA96F8F1
:104FF0002420530716D422F0010286F824203046DC
:10500000336A9847B7E600BFD02100204423002030
:10501000F0220020DC21002081421DD83046316A78
:1050200088475446B169A9EB040014EB010A2CBF70
:1050300001230023CA45C6F804A03661ECD94C45CB
:1050400001D9002BEAD00199386800F045FAD6E77B
:10505000504600F05DF893E60199D8F8000000F0A2
:105060003BFACCE7D8F800000AF1040100F034FA6A
:105070002AE700BFF0B5174C83B000F097F8256819
:105080007DB100F0A1F8206848B103241248002344
:1050900001908022114912480094FFF735F903B0BE
:1050A000F0BD104E104F304600F0F8F9384600F0D1
:1050B000F5F90E4A0E4B176010212A460A201E6091
:1050C00000F036FA20600028DBD00A4900F0B0FB7F
:1050D000D7E700BF4423002048230020606700106A
:1050E000254D001098220020AC220020DC21002059
:1050F000D02100205867001010B50446FFF744FB8C
:105100002046FCF755FA0446FFF746FB204610BD43
:1051100050B110B50446FFF737FB2046FCF75AFAAA
:10512000BDE81040FFF738BB704700BF002300B553
:1051300083B0019300F044F9019B002BFCD003B035
:105140005DF804FB10B500F03BF90446FFF72CFCBA
:1051500028B14FF0E0234FF08052C3F8042D2046D1
:10516000BDE8104000F038B910B504224FF0E0243B
:10517000002322610520A361FCF720F80721044BDE
:10518000A3FB00239B09013B6361216110BD00BFAC
:10519000D34D62104FF0E0234FF08052C3F8042D3E
:1051A000BFF34F8FBFF36F8F704700BF08B500F09C
:1051B00007F9044A136801331360BFF34F8FBFF33D
:1051C0006F8F08BD9C0E0020044B1A68013A1A60CC
:1051D000186800B1704700F0FFB800BF9C0E0020B7
:1051E000836913F8023C662B00D070474FF0E02330
:1051F000D3F8882D42F47002C3F8882DD3F8342FE9
:1052000042F04042C3F8342F00F0BCB82DE9F04F13
:105210004FF0113E4FF0807440E909E34FF007333F
:1052200040F8044C164C40F8343C40E903424FF03F
:1052300005334FF006324FF0123B40E90F324FF08A
:10524000033A4FF002394FF001384FF010374FF06A
:1052500009364FF008354FF004346FF0020340E98F
:1052600005AB40E9078940E90B6740F8305C40F83E
:10527000404C40F8443C40F8481DBDE8F08F00BF6A
:105280002D5100104FF0E0234FF07F42002110B568
:1052900084B00291C3F81C2DD3F81C3D1B0E8DF871
:1052A00007309DF807309DF807301A060CD5029B91
:1052B000013302939DF807305B00DBB28DF80730B5
:1052C0009DF807301B06F2D4029B082B3AD0029AB5
:1052D000C2F10702120202F4E0624FF0E023002460
:1052E00019490E200A60D3F8202D184942F47F0294
:1052F000C3F8202DD3F8202D42F07F42C3F8202D93
:10530000C3F81C4DFEF772FE11490F20FEF76EFE2A
:1053100010490B20FEF76AFEFFF726FF4FF05042C0
:105320000D490E4B0C6012681A7000F041F8FFF73F
:105330004BFB039400F044F8039B002BFCD00020AF
:1053400004B010BD0022C8E76C220020E953001011
:1053500045510010695400109C0E0020990E002049
:1053600008B5FBF78DF8044B044A0344136000F0C2
:1053700087F8034B186008BDEC180020C8210020F6
:10538000E8220020094A1168086806C881F30B88E2
:10539000022181F31488203080F30988BFF36F8FD6
:1053A0004FF0000080F3118810470000CC2100204E
:1053B00062B661B6BFF34F8FBFF36F8F66DF00BF7A
:1053C000EFF311804FF0100181F31188BFF34F8F7D
:1053D000BFF36F8F704700BF80F31188BFF34F8F0B
:1053E000BFF36F8F704700BFEFF309811EF0100FFE
:1053F00008BF21ED108AEFF30B82734621E9FC0F01
:1054000055FC084457FC096459FC0A8401E9F0037F
:10541000144A136819604FF0100181F31188BFF32B
:105420004F8FBFF36F8FFFF7CFFA4FF0000080F37D
:1054300011880C4A116808681838B0E8F00345EC88
:10544000004447EC016449EC0284B0E8FC0F13F01F
:10545000100F08BFB0EC108A82F30B8880F3098824
:1054600018470000CC2100201EF0040F0CBFEFF302
:105470000880EFF30980014908470000E15100105E
:1054800010B51820FFF738FE044620B1002340F87D
:10549000043B00F003F8204610BD00BF4FF0FF3181
:1054A000002200F10803C0E90131C0E903330260C2
:1054B000704700BF00230361704700BF10B4D0E9FC
:1054C000003294680133C1E90124616091605DF8A4
:1054D000044B08610360704730B40D686B1C10D03A
:1054E00000F108031C465B681A68AA42FAD90268F0
:1054F0004B60013299608C606160086130BC026071
:10550000704704696368F2E70346026910B454689F
:10551000406899689C428160486008BF51600021E2
:1055200010685DF8044B013819611060704700BFC6
:1055300070B5A0B3A1FB002305460E467BBB01FB63
:1055400000F010F1490F2AD84830FFF7D5FD044686
:1055500028B33EB300F148032360C4E90F56FFF7B8
:1055600025FE0023FF20A363216CE36B226801FB6F
:1055700003F3591A626013440A44C4E9023284F8FE
:10558000440084F8450004F11000FFF787FF04F1A0
:105590002400FFF783FFFFF717FE204670BD0024AD
:1055A000204670BD0346D7E72DE9F043044685B099
:1055B00088460192FFF7FAFDA56B002D40F0178198
:1055C000019B002B00F0C68002A8FFF769FB2F4665
:1055D00004F12406FFF7F8FDFFF7D6F8FFF7E6FD24
:1055E00094F84430FF2B08BF84F8447094F8453099
:1055F000FF2B08BF84F84570FFF7E6FD01A902A85C
:10560000FFF75AFB002854D1FFF7D0FDA36B002B06
:1056100040F0A68004F12409FFF7D6FD4846019921
:10562000FFF724FAFFF7C2FD94F845305DB2002D74
:1056300004DC11E06B1EDAB25DB26AB1636A5BB181
:105640004846FFF7C5FA0028F4D0FFF765FB6B1E4C
:10565000DAB25DB2002AF1D1FF2384F84530FFF7BA
:10566000B3FDFFF7A3FD94F844305DB2002D14DDC7
:1056700004F1100903E06B1EDAB25DB26AB123696E
:105680005BB14846FFF7A4FA0028F4D0FFF744FBCB
:105690006B1EDAB25DB2002AF1D1FF2384F84430E8
:1056A000FFF792FDFFF778F800284AD1FFF772FD67
:1056B00047E0FFF77BFD94F845305DB2002D04DC38
:1056C00011E06B1EDAB25DB26AB1636A5BB130465B
:1056D000FFF77EFA0028F4D0FFF71EFB6B1EDAB24C
:1056E0005DB2002AF1D1FF2384F84530FFF76CFD4D
:1056F000FFF75CFD94F844305DB2002D14DD04F139
:10570000100903E06B1EDAB25DB26AB123695BB1C6
:105710004846FFF75DFA0028F4D0FFF7FDFA6B1E4C
:10572000DAB25DB2002AF1D1FF2384F84430FFF7EA
:105730004BFDFFF731F8FFF739FDA36B53B1FFF7CE
:1057400043FDFFF733FDA56B002D50D1019B002BCE
:105750007FF440AFFFF738FD002005B0BDE8F083CF
:10576000FFF732FDFFF722FD94F845305DB2002DC2
:1057700014DD04F1240903E06B1EDAB25DB26AB1F4
:10578000636A5BB14846FFF723FA0028F4D0FFF7BD
:10579000C3FA6B1EDAB25DB2002AF1D1FF2384F89E
:1057A0004530FFF711FDFFF701FD94F844305DB27D
:1057B000002D14DD04F1100903E06B1EDAB25DB2B6
:1057C0006AB123695BB14846FFF702FA0028F4D0BA
:1057D000FFF7A2FA6B1EDAB25DB2002AF1D1FF2305
:1057E00084F84430FFF7F0FCFEF7D6FFA9E7226CFF
:1057F0005AB1E168A36811449942E16028BF216869
:10580000404628BFE16000F087FC2369013DA563A5
:105810002BB9FFF7D9FC012005B0BDE8F08304F1F6
:105820001000FFF7D5F90028F3D0FFF7B3FCF0E73D
:1058300000296BD0564B5A68904200F08B801A6852
:1058400010B4002A3BD0DA68904200F09E809A683B
:10585000002A55D05A69904200F095801A69002AB2
:1058600055D0DA69904200F082809A69002A54D0BB
:105870005A6A904256D01A6A002A57D0DA6A904281
:1058800077D09A6A002A56D05A6B904273D01A6B1E
:10589000002A55D0DA6B90426FD09A6B002A54D010
:1058A0005A6C90426BD01A6C002A59D0DA6C904234
:1058B00067D09B6C002B58D05DF8044B7047DA68BA
:1058C000904262D05A6990425DD01A46DC69A0428B
:1058D0004DD05C6AA04225D0DC6AA04249D05C6B06
:1058E000A04248D0DC6BA04247D05C6CA04246D0BE
:1058F000DC6CA04245D0C2E900105DF8044B704753
:105900005A6990423FD003F10802DFE77047DA6935
:1059100090422CD003F11002DBE75A6A904201D08A
:105920001C4AD9E7042203EBC202E4E7DA6A904298
:105930001FD0194AD3E75A6B90421CD0174AD1E7BF
:10594000DA6B904219D0164ACFE75A6C904216D0C3
:10595000144ACDE7002203EBC202C2E900107047EF
:10596000DA6C90420DD0104AC5E7104AC3E7032213
:10597000D9E70522D7E70622D5E70722D3E7082291
:10598000D1E70922CFE70222CDE70122CBE700BF12
:1059900088150020A0150020A8150020B0150020B3
:1059A000B8150020C0150020C8150020D015002013
:1059B00070B505460E461446FFF7F8FB95F84430DF
:1059C000FF2B04BF002385F8443095F84530FF2BAA
:1059D00004BF002385F84530FFF7F6FBAB6B002BC7
:1059E00043D0FFF7E3FB95F845305CB2002C14DDA3
:1059F00005F1240603E0631EDAB25CB26AB16B6A99
:105A00005BB13046FFF7E4F80028F4D0FFF784F9E3
:105A1000631EDAB25CB2002AF1D1FF2385F845306B
:105A2000FFF7D2FBFFF7C2FB95F844305CB2002CC5
:105A300014DD05F1100603E0631EDAB25CB26AB150
:105A40002B695BB13046FFF7C3F80028F4D0FFF7AD
:105A500063F9631EDAB25CB2002AF1D1FF2385F844
:105A60004430BDE87040FFF7AFBB2246314605F138
:105A70002400FFF747F8B4E7024B0146186800F02E
:105A80000BB800BFB0120020024B0146186800F0AE
:105A900043BC00BFB012002001F10B03162B2DE90F
:105AA000F04F074683B023D8102900F2AF8000F0F2
:105AB000AFFA102518230220BA4E33445C68A3F1D4
:105AC0000802944200F056816368384623F00303CD
:105AD000D4E902122344CA6091605A68083442F043
